:100000000C9458000C9480000C9480000C94800098
:100010000C9480000C9480000C9480000C94800060
:100020000C9480000C9480000C9480000C94800050
:100030000C9480000C9480000C9480000C94800040
:100040000C94CC030C9480000C9480000C948000E1
:100050000C9480000C9480000C9480000C94800020
:100060000C9416040C948000000000002500280069
:100070002B00040404040404040402020202020229
:10008000030303030303010204081020408001025C
:1000900004081020010204081020000000080002DB
:1000A0000100000304070000000000000000350507
:1000B00011241FBECFEFD8E0DEBFCDBF11E0A0E01E
:1000C000B1E0E6E6FDE002C005900D92A433B10771
:1000D000D9F722E0A4E3B1E001C01D92A031B2073C
:1000E000E1F710E0C8E5D0E004C02197FE010E94CE
:1000F000AB06C735D107C9F70E9456050C94B10667
:100100000C94000090E0FC01E656FF4F2491FC01A6
:10011000EA57FF4F3491FC01EE58FF4FE491EE2374
:10012000C9F0222339F0233001F1A8F4213019F16C
:10013000223029F1F0E0EE0FFF1FE859FF4FA591A3
:10014000B4918FB7F894EC91611126C030953E239D
:100150003C938FBF08952730A9F02830C9F0243090
:1001600049F7809180008F7D03C0809180008F7758
:1001700080938000DFCF84B58F7784BDDBCF84B5DB
:100180008F7DFBCF8091B0008F778093B000D2CF6E
:100190008091B0008F7DF9CF3E2BDACF3FB7F89436
:1001A0008091F3019091F401A091F501B091F601D5
:1001B00026B5A89B05C02F3F19F00196A11DB11DC2
:1001C0003FBFBA2FA92F982F8827BC01CD01620FFE
:1001D000711D811D911D42E0660F771F881F991FB9
:1001E0004A95D1F708958F929F92AF92BF92CF9286
:1001F000DF92EF92FF924B015C010E94CE006B01F7
:100200007C010E94CE006C197D098E099F09683E11
:10021000734081059105A8F321E0821A9108A10895
:10022000B10888EEC80E83E0D81EE11CF11C8114D1
:100230009104A104B10429F7FF90EF90DF90CF90D3
:10024000BF90AF909F908F90089508950895AF92BA
:10025000BF92CF92DF92EF92FF920F931F93CF93B3
:10026000DF936C017B018B01040F151FEB015E0115
:10027000AE18BF08C017D10759F06991D601ED91AA
:10028000FC910190F081E02DC6010995892B79F749
:10029000C501DF91CF911F910F91FF90EF90DF90FB
:1002A000CF90BF90AF90089520919C01260F3327E7
:1002B000331F21323105ECF42091C001FC0190E0A4
:1002C00080E0243069F082E00895A0919C012191A2
:1002D000AC0144585E4FA40FB52FB11D2C9301966D
:1002E000861798F380919C01680F60939C0180E0D1
:1002F000089581E008951092C00181E08093C201C9
:100300001092C10161E082E10E94820061E083E11C
:100310000E948200E9EBF0E080818E7F8083808103
:100320008D7F808388E48093B80085E48093BC004F
:100330000895CF93DF9391E090937B018823B9F0E8
:10034000C091B800D091BA008091BC008A7B8093A4
:10035000BC0060E082E10E94820060E083E10E94D4
:1003600082000E947B01D093BA00C093B800DF9155
:10037000CF9108950895E091ED018091EC01E81787
:1003800030F4F0E0EA5AFE4F808190E008958FEF5C
:100390009FEF08959091ED018091EC012FEF3FEFD9
:1003A000981748F4E92FF0E0EA5AFE4F208130E038
:1003B0009F5F9093ED01C90108958091EC019091A8
:1003C000ED01891B990B0895CF92DF92EF92FF9276
:1003D0000F931F93CF93DF937C01CB018A01209170
:1003E0005501222389F0EB016B01C40ED51ECC15FB
:1003F000DD0569F06991D701ED91FC910190F081E3
:10040000E02DC7010995F3CF642F0E945401C80164
:10041000DF91CF911F910F91FF90EF90DF90CF90E0
:100420000895CF93DF931F92CDB7DEB769832091F4
:1004300055012223F9F02091EA01203258F021E001
:1004400030E0FC013383228390E080E00F90DF9165
:10045000CF9108958091EB01E82FF0E0EB5CFE4F27
:10046000998190838F5F8093EB018093EA0181E013
:1004700090E0ECCF61E0CE0101960E945401F7CFED
:10048000CF92DF92EF92FF920F931F93CF93DF9360
:10049000FC01C48121E020935501C09334011092E6
:1004A000EB011092EA018485682B87EF91E00E94AE
:1004B0001102D091EA01D13208F092C00E94CE0020
:1004C0006B017C018091C001811165C082E0809345
:1004D000C00181E08093C2018FEF8093BF01109231
:1004E000E401D093E301A5E3B1E0E3ECF1E080E0C7
:1004F000D81385C01092E5018091E501CC0FC82B7F
:10050000C093E5018091C101813009F07CC0109257
:10051000C1010E94CE006B017C018091E5018093B6
:10052000BB008091770190917801A0917901B09101
:100530007A01892B8A2B8B2B99F00E94CE00009197
:100540007701109178012091790130917A016C192D
:100550007D098E099F090617170728073907E0F15B
:100560008091BC0083FDD9CF85EC8093BC000E94B4
:10057000CE006B017C018091C001823009F445C03E
:100580008091BF018F3F61F18091BF01803241F1C5
:100590008091BF0125C08091770190917801A09151
:1005A0007901B0917A01892B8A2B8B2B09F48ACFA0
:1005B0000E94CE000091770110917801209179017D
:1005C00030917A016C197D098E099F09061717076A
:1005D0002807390708F076CF809176010E949901AB
:1005E0001092EB011092EA0110925501DF91CF9128
:1005F0001F910F91FF90EF90DF90CF9008959D9104
:1006000091938F5F75CF85EEB0CF809177019091F8
:100610007801A0917901B0917A01892B8A2B8B2BDB
:1006200009F4A9CF0E94CE000091770110917801C2
:100630002091790130917A016C197D098E099F0909
:10064000061717072807390708F095CFC5CF089573
:1006500090E080E008950F931F93CF938C01C62FF5
:100660000E9440026C2F6460C8010E9440026C2FFF
:100670006B7FC8010E94400283EC90E00197F1F784
:10068000CF911F910F9108950F931F93CF93DF93F5
:100690008C01D62FC42F607F642B0E942B0380E136
:1006A000D89FB00111246C2BC801DF91CF911F910D
:1006B0000F910C942B03CF93DF93CDB7DEB7289720
:1006C0000FB6F894DEBF0FBECDBF98E0E0E0F1E0DA
:1006D000DE01119601900D929A95E1F790910B022F
:1006E000961708F46FEF262F30E0220F331F41E0FA
:1006F00050E04C0F5D1F240F351FF9016081680F1A
:10070000606840E083E092E028960FB6F894DEBF80
:100710000FBECDBFDF91CF910C94440341E00E9406
:10072000440381E090E0089585ED8093BC008091C2
:10073000770190917801A0917901B0917A010796A3
:10074000A11DB11D23E0B695A795979587952A958C
:10075000D1F72091BC0024FD03C01092C001089580
:1007600040917701509178016091790170917A01FF
:10077000452B462B472B69F30097A105B10541F0A6
:100780002AE22A95F1F700C00197A109B109E1CF4A
:10079000809176010C9499011F920F920FB60F92DF
:1007A00011242F933F938F939F93AF93BF93809187
:1007B000EF019091F001A091F101B091F20130911F
:1007C000EE0123E0230F2D3758F50196A11DB11D31
:1007D0002093EE018093EF019093F001A093F1013B
:1007E000B093F2018091F3019091F401A091F50191
:1007F000B091F6010196A11DB11D8093F301909374
:10080000F401A093F501B093F601BF91AF919F91D0
:100810008F913F912F910F900FBE0F901F901895C1
:1008200026E8230F0296A11DB11DD2CF1F920F9271
:100830000FB60F9211242F933F934F935F936F93B3
:100840007F938F939F93AF93BF93EF93FF93809189
:10085000B900887F803609F44AC0F0F5883209F47F
:10086000A7C018F5803109F49BC0B8F4882309F4B7
:10087000F9C0883009F494C0FF91EF91BF91AF9116
:100880009F918F917F916F915F914F913F912F91A8
:100890000F900FBE0F901F901895883109F488C0F3
:1008A000803251F78093BF0114C0803409F49DC099
:1008B00040F48033B9F38833F9F68093BF0185ECB7
:1008C000B0C0803509F485C0883509F496C08834F5
:1008D00099F60E949403D0CF883909F48CC038F57A
:1008E000883729F050F4883611F0803729F683E0F4
:1008F0008093C0011092BE0157C0883809F47BC0B4
:10090000803919F0803809F0B7CF8091BE0180326C
:1009100008F071C0E091BE0181E08E0F8093BE01AE
:100920008091BB00F0E0E256FE4F80833DC0803BEB
:1009300039F0E0F4803A09F479C0883A09F09CCFA4
:1009400084E08093C00110929D0110929C01E0917F
:10095000E801F091E901099580919C0181110FC096
:1009600081E080939C0110927C0109C0803C09F4D5
:10097000A6CF883C09F4A3CF883B09F07DCFE09156
:100980009D0181E08E0F80939D01F0E0E458FE4FC1
:1009900080818093BB0090919D0180919C0129C032
:1009A0008091E5018093BB0085EC8093BC0064CF0F
:1009B0009091E4018091E301981758F5E091E401EA
:1009C00081E08E0F8093E401F0E0ED53FE4F8081D3
:1009D000E9CFE091E40181E08E0F8093E401809102
:1009E000BB00F0E0ED53FE4F80839091E4018091D5
:1009F000E3019817C8F285E8D8CFE091E40181E0DF
:100A00008E0F8093E4018091BB00F0E0ED53FE4F28
:100A100080838091C20181115CCF81E08093C1010C
:100A200084EA8093BC001092C00126CF85EC8093AD
:100A3000BC001092C0018091BE01803230F4E09180
:100A4000BE01F0E0E256FE4F10826091BE0170E000
:100A5000E091E601F091E7018EE991E009951092AD
:100A6000BE010ACF1092BF0134CFE7EFF1E013824D
:100A7000128288EE93E0A0E0B0E084839583A683A1
:100A8000B7838CE091E091838083E3E0F2E013820E
:100A900012828EE191E091838083118687E28483C4
:100AA00084E1828784E0838714860895CF93DF935F
:100AB000CDB7DEB7A1970FB6F894DEBF0FBECDBF9E
:100AC000789484B5826084BD84B5816084BD85B529
:100AD000826085BD85B5816085BD80916E00816035
:100AE00080936E00109281008091810082608093DB
:100AF00081008091810081608093810080918000DD
:100B00008160809380008091B10084608093B10007
:100B10008091B00081608093B00080917A00846001
:100B200080937A0080917A00826080937A0080912D
:100B30007A00816080937A0080917A008068809347
:100B40007A001092C1001092ED011092EC01109207
:100B5000EB011092EA010E947B0185E291E0909303
:100B6000E9018093E80186E291E09093E7018093A8
:100B7000E6011092080280910E02823018F098E08F
:100B80009093080280930B0262E370E080E090E0B3
:100B90000E94F30060910F0283E092E00E94400205
:100BA00068EE73E080E090E00E94F30060E383E091
:100BB00092E00E942B030BE416E4C8010197F1F7C1
:100BC00060E383E092E00E942B03C8010197F1F7F4
:100BD00060E383E092E00E942B0383E592E00197BB
:100BE000F1F760E283E092E00E942B03609108023B
:100BF000606240E083E092E00E94440384E08093DE
:100C0000090240E06CE083E092E00E94440340E08F
:100C100061E083E092E00E9444038BE39FE101974F
:100C2000F1F780910C02882321F060E080E00E94BF
:100C30005B0382E080930A0240E066E083E092E09A
:100C40000E94440340E062E083E092E00E9444039B
:100C50008BE39FE10197F1F788E080930F0260E05A
:100C600083E092E00E94400260E081E00E945B032A
:100C70004DE050E066E271E083E092E00E942701DF
:100C800088EEC82E83E0D82EE12CF12C9AE0492E74
:100C9000512C612C712C20E0A22E20E0B22E61E0BC
:100CA00087E00E945B032FB7F8946091EF01709189
:100CB000F0018091F1019091F2012FBFA7019601FF
:100CC0000E94890619A28E010F5D1F4FCA01B9014A
:100CD000A30192010E948906605DF80162938F0171
:100CE000211531054105510589F7309761F00190D3
:100CF0000020E9F73197AF01401B510BB80183E0A9
:100D000092E00E942701A114B10449F20E94000060
:100D1000C6CFA1E21A2EAA1BBB1BFD010DC0AA1F44
:100D2000BB1FEE1FFF1FA217B307E407F50720F054
:100D3000A21BB30BE40BF50B661F771F881F991FCF
:100D40001A9469F760957095809590959B01AC0118
:100D5000BD01CF010895EE0FFF1F0590F491E02D26
:060D60000994F894FFCF96
:100D66000000400014005400000000001102E401DD
:100D76002803BA01DD01CA01BB01000000008E0391
:100D860027012803270348656C6C6F2C20576F6B6F
:040D96007769210058
:00000001FF
